{
  "contractName": "Document",
  "abi": [
    {
      "constant": true,
      "inputs": [
        {
          "name": "",
          "type": "uint256"
        }
      ],
      "name": "transactions",
      "outputs": [
        {
          "name": "id",
          "type": "uint256"
        },
        {
          "name": "DRAddress",
          "type": "address"
        },
        {
          "name": "CRAddress",
          "type": "address"
        },
        {
          "name": "amount",
          "type": "uint256"
        },
        {
          "name": "document",
          "type": "string"
        },
        {
          "name": "date",
          "type": "string"
        },
        {
          "name": "description",
          "type": "string"
        }
      ],
      "payable": false,
      "stateMutability": "view",
      "type": "function",
      "signature": "0x9ace38c2"
    },
    {
      "constant": true,
      "inputs": [],
      "name": "transactionCount",
      "outputs": [
        {
          "name": "",
          "type": "uint256"
        }
      ],
      "payable": false,
      "stateMutability": "view",
      "type": "function",
      "signature": "0xb77bf600"
    },
    {
      "inputs": [],
      "payable": false,
      "stateMutability": "nonpayable",
      "type": "constructor",
      "signature": "constructor"
    },
    {
      "anonymous": false,
      "inputs": [
        {
          "indexed": true,
          "name": "_transactionId",
          "type": "uint256"
        }
      ],
      "name": "SendTransactionEvent",
      "type": "event",
      "signature": "0x1a9457a8858fa4a47729fb60cdafa5914b82ac552e5dfd6500113cf0f15a7407"
    },
    {
      "constant": false,
      "inputs": [
        {
          "name": "_DRAddress",
          "type": "address"
        },
        {
          "name": "_CRAddress",
          "type": "address"
        },
        {
          "name": "_amount",
          "type": "uint256"
        },
        {
          "name": "_document",
          "type": "string"
        },
        {
          "name": "_date",
          "type": "string"
        },
        {
          "name": "_description",
          "type": "string"
        }
      ],
      "name": "addTransaction",
      "outputs": [],
      "payable": false,
      "stateMutability": "nonpayable",
      "type": "function",
      "signature": "0xed07ed66"
    },
    {
      "constant": false,
      "inputs": [
        {
          "name": "_addr",
          "type": "address"
        }
      ],
      "name": "sendEther",
      "outputs": [],
      "payable": true,
      "stateMutability": "payable",
      "type": "function",
      "signature": "0x48c981e2"
    }
  ],
  "bytecode": "0x608060405273f8a278e1c1407d9c0926214eabd7fe6c197b08cd6000806101000a81548173ffffffffffffffffffffffffffffffffffffffff021916908373ffffffffffffffffffffffffffffffffffffffff1602179055503480156200006557600080fd5b506200014d73d3dd78d4dd729b2bc9b6f9353a0be48c9b470d79730405bc3da03730f78f568c8f9598e7263542aca060736040805190810160405280600a81526020017f496e766f696365203132000000000000000000000000000000000000000000008152506040805190810160405280600981526020017f32332f312f3230313900000000000000000000000000000000000000000000008152506040805190810160405280600481526020017f53616c650000000000000000000000000000000000000000000000000000000081525062000b40640100000000026401000000009004565b62000234730405bc3da03730f78f568c8f9598e7263542aca073d3dd78d4dd729b2bc9b6f9353a0be48c9b470d7960e66040805190810160405280600a81526020017f496e766f696365203332000000000000000000000000000000000000000000008152506040805190810160405280600981526020017f31362f342f3230313900000000000000000000000000000000000000000000008152506040805190810160405280600881526020017f507572636861736500000000000000000000000000000000000000000000000081525062000b40640100000000026401000000009004565b6200031b73d3dd78d4dd729b2bc9b6f9353a0be48c9b470d79730405bc3da03730f78f568c8f9598e7263542aca0601f6040805190810160405280600a81526020017f50617920536c69702038000000000000000000000000000000000000000000008152506040805190810160405280600981526020017f31362f312f3230313800000000000000000000000000000000000000000000008152506040805190810160405280600881526020017f456d706c6f79656500000000000000000000000000000000000000000000000081525062000b40640100000000026401000000009004565b6200040273d3dd78d4dd729b2bc9b6f9353a0be48c9b470d79730405bc3da03730f78f568c8f9598e7263542aca060736040805190810160405280600a81526020017f496e766f696365203534000000000000000000000000000000000000000000008152506040805190810160405280600981526020017f31362f332f3230313900000000000000000000000000000000000000000000008152506040805190810160405280600481526020017f53616c650000000000000000000000000000000000000000000000000000000081525062000b40640100000000026401000000009004565b620004e9730405bc3da03730f78f568c8f9598e7263542aca073d3dd78d4dd729b2bc9b6f9353a0be48c9b470d7960e66040805190810160405280600a81526020017f496e766f696365203334000000000000000000000000000000000000000000008152506040805190810160405280600981526020017f31362f322f3230313900000000000000000000000000000000000000000000008152506040805190810160405280600881526020017f507572636861736500000000000000000000000000000000000000000000000081525062000b40640100000000026401000000009004565b620005d073d3dd78d4dd729b2bc9b6f9353a0be48c9b470d79730405bc3da03730f78f568c8f9598e7263542aca0601f6040805190810160405280600b81526020017f50617920536c69702038380000000000000000000000000000000000000000008152506040805190810160405280600981526020017f33302f352f3230313900000000000000000000000000000000000000000000008152506040805190810160405280600881526020017f456d706c6f79656500000000000000000000000000000000000000000000000081525062000b40640100000000026401000000009004565b620006b773d3dd78d4dd729b2bc9b6f9353a0be48c9b470d79730405bc3da03730f78f568c8f9598e7263542aca060736040805190810160405280600a81526020017f496e766f696365203937000000000000000000000000000000000000000000008152506040805190810160405280600981526020017f31322f312f3230313900000000000000000000000000000000000000000000008152506040805190810160405280600481526020017f53616c650000000000000000000000000000000000000000000000000000000081525062000b40640100000000026401000000009004565b6200079e730405bc3da03730f78f568c8f9598e7263542aca073d3dd78d4dd729b2bc9b6f9353a0be48c9b470d7960e66040805190810160405280600a81526020017f496e766f696365203839000000000000000000000000000000000000000000008152506040805190810160405280600981526020017f32312f312f3230313900000000000000000000000000000000000000000000008152506040805190810160405280600881526020017f507572636861736500000000000000000000000000000000000000000000000081525062000b40640100000000026401000000009004565b6200088573d3dd78d4dd729b2bc9b6f9353a0be48c9b470d79730405bc3da03730f78f568c8f9598e7263542aca0601f6040805190810160405280600b81526020017f50617920536c69702037350000000000000000000000000000000000000000008152506040805190810160405280600881526020017f342f312f323031390000000000000000000000000000000000000000000000008152506040805190810160405280600881526020017f456d706c6f79656500000000000000000000000000000000000000000000000081525062000b40640100000000026401000000009004565b6200096c73d3dd78d4dd729b2bc9b6f9353a0be48c9b470d79730405bc3da03730f78f568c8f9598e7263542aca060736040805190810160405280600b81526020017f496e766f696365203836200000000000000000000000000000000000000000008152506040805190810160405280600981526020017f31362f342f3230313900000000000000000000000000000000000000000000008152506040805190810160405280600481526020017f53616c650000000000000000000000000000000000000000000000000000000081525062000b40640100000000026401000000009004565b62000a53730405bc3da03730f78f568c8f9598e7263542aca073d3dd78d4dd729b2bc9b6f9353a0be48c9b470d7960e66040805190810160405280600a81526020017f496e766f696365203234000000000000000000000000000000000000000000008152506040805190810160405280600981526020017f31362f362f3230313900000000000000000000000000000000000000000000008152506040805190810160405280600881526020017f507572636861736500000000000000000000000000000000000000000000000081525062000b40640100000000026401000000009004565b62000b3a73d3dd78d4dd729b2bc9b6f9353a0be48c9b470d79730405bc3da03730f78f568c8f9598e7263542aca0601f6040805190810160405280600c81526020017f50617920536c69702034333200000000000000000000000000000000000000008152506040805190810160405280600881526020017f362f312f323031390000000000000000000000000000000000000000000000008152506040805190810160405280600881526020017f456d706c6f79656500000000000000000000000000000000000000000000000081525062000b40640100000000026401000000009004565b62000db1565b60026000815480929190600101919050555060e06040519081016040528060025481526020018773ffffffffffffffffffffffffffffffffffffffff1681526020018673ffffffffffffffffffffffffffffffffffffffff168152602001858152602001848152602001838152602001828152506001600060025481526020019081526020016000206000820151816000015560208201518160010160006101000a81548173ffffffffffffffffffffffffffffffffffffffff021916908373ffffffffffffffffffffffffffffffffffffffff16021790555060408201518160020160006101000a81548173ffffffffffffffffffffffffffffffffffffffff021916908373ffffffffffffffffffffffffffffffffffffffff16021790555060608201518160030155608082015181600401908051906020019062000c8992919062000d02565b5060a082015181600501908051906020019062000ca892919062000d02565b5060c082015181600601908051906020019062000cc792919062000d02565b509050506002547f1a9457a8858fa4a47729fb60cdafa5914b82ac552e5dfd6500113cf0f15a740760405160405180910390a2505050505050565b828054600181600116156101000203166002900490600052602060002090601f016020900481019282601f1062000d4557805160ff191683800117855562000d76565b8280016001018555821562000d76579182015b8281111562000d7557825182559160200191906001019062000d58565b5b50905062000d85919062000d89565b5090565b62000dae91905b8082111562000daa57600081600090555060010162000d90565b5090565b90565b610a3d8062000dc16000396000f3fe608060405260043610610062576000357c0100000000000000000000000000000000000000000000000000000000900463ffffffff16806348c981e2146100675780639ace38c2146100ab578063b77bf600146102ab578063ed07ed66146102d6575b600080fd5b6100a96004803603602081101561007d57600080fd5b81019080803573ffffffffffffffffffffffffffffffffffffffff169060200190929190505050610516565b005b3480156100b757600080fd5b506100e4600480360360208110156100ce57600080fd5b8101908080359060200190929190505050610560565b604051808881526020018773ffffffffffffffffffffffffffffffffffffffff1673ffffffffffffffffffffffffffffffffffffffff1681526020018673ffffffffffffffffffffffffffffffffffffffff1673ffffffffffffffffffffffffffffffffffffffff168152602001858152602001806020018060200180602001848103845287818151815260200191508051906020019080838360005b8381101561019c578082015181840152602081019050610181565b50505050905090810190601f1680156101c95780820380516001836020036101000a031916815260200191505b50848103835286818151815260200191508051906020019080838360005b838110156102025780820151818401526020810190506101e7565b50505050905090810190601f16801561022f5780820380516001836020036101000a031916815260200191505b50848103825285818151815260200191508051906020019080838360005b8381101561026857808201518184015260208101905061024d565b50505050905090810190601f1680156102955780820380516001836020036101000a031916815260200191505b509a505050505050505050505060405180910390f35b3480156102b757600080fd5b506102c06107aa565b6040518082815260200191505060405180910390f35b3480156102e257600080fd5b50610514600480360360c08110156102f957600080fd5b81019080803573ffffffffffffffffffffffffffffffffffffffff169060200190929190803573ffffffffffffffffffffffffffffffffffffffff169060200190929190803590602001909291908035906020019064010000000081111561036057600080fd5b82018360208201111561037257600080fd5b8035906020019184600183028401116401000000008311171561039457600080fd5b91908080601f016020809104026020016040519081016040528093929190818152602001838380828437600081840152601f19601f820116905080830192505050505050509192919290803590602001906401000000008111156103f757600080fd5b82018360208201111561040957600080fd5b8035906020019184600183028401116401000000008311171561042b57600080fd5b91908080601f016020809104026020016040519081016040528093929190818152602001838380828437600081840152601f19601f8201169050808301925050505050505091929192908035906020019064010000000081111561048e57600080fd5b8201836020820111156104a057600080fd5b803590602001918460018302840111640100000000831117156104c257600080fd5b91908080601f016020809104026020016040519081016040528093929190818152602001838380828437600081840152601f19601f8201169050808301925050505050505091929192905050506107b0565b005b8073ffffffffffffffffffffffffffffffffffffffff166108fc349081150290604051600060405180830381858888f1935050505015801561055c573d6000803e3d6000fd5b5050565b60016020528060005260406000206000915090508060000154908060010160009054906101000a900473ffffffffffffffffffffffffffffffffffffffff16908060020160009054906101000a900473ffffffffffffffffffffffffffffffffffffffff1690806003015490806004018054600181600116156101000203166002900480601f0160208091040260200160405190810160405280929190818152602001828054600181600116156101000203166002900480156106645780601f1061063957610100808354040283529160200191610664565b820191906000526020600020905b81548152906001019060200180831161064757829003601f168201915b505050505090806005018054600181600116156101000203166002900480601f0160208091040260200160405190810160405280929190818152602001828054600181600116156101000203166002900480156107025780601f106106d757610100808354040283529160200191610702565b820191906000526020600020905b8154815290600101906020018083116106e557829003601f168201915b505050505090806006018054600181600116156101000203166002900480601f0160208091040260200160405190810160405280929190818152602001828054600181600116156101000203166002900480156107a05780601f10610775576101008083540402835291602001916107a0565b820191906000526020600020905b81548152906001019060200180831161078357829003601f168201915b5050505050905087565b60025481565b60026000815480929190600101919050555060e06040519081016040528060025481526020018773ffffffffffffffffffffffffffffffffffffffff1681526020018673ffffffffffffffffffffffffffffffffffffffff168152602001858152602001848152602001838152602001828152506001600060025481526020019081526020016000206000820151816000015560208201518160010160006101000a81548173ffffffffffffffffffffffffffffffffffffffff021916908373ffffffffffffffffffffffffffffffffffffffff16021790555060408201518160020160006101000a81548173ffffffffffffffffffffffffffffffffffffffff021916908373ffffffffffffffffffffffffffffffffffffffff1602179055506060820151816003015560808201518160040190805190602001906108f792919061096c565b5060a082015181600501908051906020019061091492919061096c565b5060c082015181600601908051906020019061093192919061096c565b509050506002547f1a9457a8858fa4a47729fb60cdafa5914b82ac552e5dfd6500113cf0f15a740760405160405180910390a2505050505050565b828054600181600116156101000203166002900490600052602060002090601f016020900481019282601f106109ad57805160ff19168380011785556109db565b828001600101855582156109db579182015b828111156109da5782518255916020019190600101906109bf565b5b5090506109e891906109ec565b5090565b610a0e91905b80821115610a0a5760008160009055506001016109f2565b5090565b9056fea165627a7a72305820fa14c528328b80f93a7ca40a62a75faa0927af5293aa216cca85b1ed63a428da0029",
  "source": "pragma solidity >=0.4.22 <0.6.0;\r\n\r\ncontract Document {\r\n\r\n    //0xD3dD78D4DD729B2bC9b6f9353a0BE48C9B470d79\r\n\r\n    struct Transaction {\r\n        uint id;\r\n        address DRAddress;\r\n        address CRAddress;\r\n        uint amount;\r\n        string document;\r\n        string date;\r\n        string description;\r\n    }\r\n\r\n    address SARS = 0xF8a278E1c1407D9C0926214eabD7fe6C197B08Cd;\r\n\r\n\r\n    mapping(uint => Transaction) public transactions;\r\n    uint public transactionCount;\r\n\r\n    // voted event\r\n    event SendTransactionEvent (\r\n        uint indexed _transactionId\r\n    );\r\n\r\n    constructor () public {\r\n        addTransaction(0xD3dD78D4DD729B2bC9b6f9353a0BE48C9B470d79,0x0405bC3Da03730f78F568C8f9598e7263542ACa0,115,\"Invoice 12\",\"23/1/2019\",\"Sale\");\r\n        addTransaction(0x0405bC3Da03730f78F568C8f9598e7263542ACa0,0xD3dD78D4DD729B2bC9b6f9353a0BE48C9B470d79,230,\"Invoice 32\",\"16/4/2019\",\"Purchase\");\r\n        addTransaction(0xD3dD78D4DD729B2bC9b6f9353a0BE48C9B470d79,0x0405bC3Da03730f78F568C8f9598e7263542ACa0,31,\"Pay Slip 8\",\"16/1/2018\",\"Employee\");\r\n        addTransaction(0xD3dD78D4DD729B2bC9b6f9353a0BE48C9B470d79,0x0405bC3Da03730f78F568C8f9598e7263542ACa0,115,\"Invoice 54\",\"16/3/2019\",\"Sale\");\r\n        addTransaction(0x0405bC3Da03730f78F568C8f9598e7263542ACa0,0xD3dD78D4DD729B2bC9b6f9353a0BE48C9B470d79,230,\"Invoice 34\",\"16/2/2019\",\"Purchase\");\r\n        addTransaction(0xD3dD78D4DD729B2bC9b6f9353a0BE48C9B470d79,0x0405bC3Da03730f78F568C8f9598e7263542ACa0,31,\"Pay Slip 88\",\"30/5/2019\",\"Employee\");\r\n        addTransaction(0xD3dD78D4DD729B2bC9b6f9353a0BE48C9B470d79,0x0405bC3Da03730f78F568C8f9598e7263542ACa0,115,\"Invoice 97\",\"12/1/2019\",\"Sale\");\r\n        addTransaction(0x0405bC3Da03730f78F568C8f9598e7263542ACa0,0xD3dD78D4DD729B2bC9b6f9353a0BE48C9B470d79,230,\"Invoice 89\",\"21/1/2019\",\"Purchase\");\r\n        addTransaction(0xD3dD78D4DD729B2bC9b6f9353a0BE48C9B470d79,0x0405bC3Da03730f78F568C8f9598e7263542ACa0,31,\"Pay Slip 75\",\"4/1/2019\",\"Employee\");\r\n        addTransaction(0xD3dD78D4DD729B2bC9b6f9353a0BE48C9B470d79,0x0405bC3Da03730f78F568C8f9598e7263542ACa0,115,\"Invoice 86 \",\"16/4/2019\",\"Sale\");\r\n        addTransaction(0x0405bC3Da03730f78F568C8f9598e7263542ACa0,0xD3dD78D4DD729B2bC9b6f9353a0BE48C9B470d79,230,\"Invoice 24\",\"16/6/2019\",\"Purchase\");\r\n        addTransaction(0xD3dD78D4DD729B2bC9b6f9353a0BE48C9B470d79,0x0405bC3Da03730f78F568C8f9598e7263542ACa0,31,\"Pay Slip 432\",\"6/1/2019\",\"Employee\");\r\n       \r\n    }\r\n\r\n    function addTransaction (address _DRAddress, address _CRAddress, uint _amount,  string memory _document,string memory _date, string memory _description) public {\r\n        transactionCount ++;\r\n        transactions[transactionCount] = Transaction(transactionCount,_DRAddress, _CRAddress, _amount,_document,_date,_description);\r\n        emit SendTransactionEvent(transactionCount);\r\n    }\r\n\r\n    function sendEther(address payable _addr) public payable {\r\n        _addr.transfer(msg.value);\r\n    }\r\n\r\n\r\n   /* function vote (uint _candidateId) public {\r\n        // require that they haven't voted before\r\n        require(!voters[msg.sender]);\r\n\r\n        // require a valid candidate\r\n        require(_candidateId > 0 && _candidateId <= candidatesCount);\r\n\r\n        // record that voter has voted\r\n        voters[msg.sender] = true;\r\n\r\n        // update candidate vote Count\r\n        candidates[_candidateId].voteCount ++;\r\n\r\n        // trigger voted event\r\n        emit votedEvent(_candidateId);\r\n    }*/\r\n}\r\n",
  "sourcePath": "C:/Dapps/transactions/contracts/Document.sol",
  "compiler": {
    "name": "solc",
    "version": "0.5.0+commit.1d4f565a.Emscripten.clang"
  },
  "schemaVersion": "3.0.1",
  "updatedAt": "2019-01-30T21:52:05.943Z",
  "devdoc": {
    "methods": {}
  },
  "userdoc": {
    "methods": {}
  }
}